{
	"contracts/101_SelfDestruct.sol": {
		"SelfDestruct": {
			"abi": [
				{
					"anonymous": false,
					"inputs": [
						{
							"indexed": false,
							"internalType": "address",
							"name": "sender",
							"type": "address"
						},
						{
							"indexed": false,
							"internalType": "uint256",
							"name": "value",
							"type": "uint256"
						}
					],
					"name": "Log",
					"type": "event"
				},
				{
					"inputs": [
						{
							"internalType": "address payable",
							"name": "_destAddr",
							"type": "address"
						}
					],
					"name": "destruct",
					"outputs": [],
					"stateMutability": "nonpayable",
					"type": "function"
				},
				{
					"stateMutability": "payable",
					"type": "receive"
				}
			],
			"devdoc": {
				"details": "Implements voting process along with vote delegation",
				"kind": "dev",
				"methods": {},
				"title": "Ballot",
				"version": 1
			},
			"evm": {
				"assembly": "    /* \"contracts/101_SelfDestruct.sol\":157:606  contract SelfDestruct {... */\n  mstore(0x40, 0x80)\n  callvalue\n  dup1\n  iszero\n  tag_1\n  jumpi\n  0x00\n  dup1\n  revert\ntag_1:\n  pop\n  dataSize(sub_0)\n  dup1\n  dataOffset(sub_0)\n  0x00\n  codecopy\n  0x00\n  return\nstop\n\nsub_0: assembly {\n        /* \"contracts/101_SelfDestruct.sol\":157:606  contract SelfDestruct {... */\n      mstore(0x40, 0x80)\n      jumpi(tag_1, lt(calldatasize, 0x04))\n      shr(0xe0, calldataload(0x00))\n      dup1\n      0x1beb2615\n      eq\n      tag_3\n      jumpi\n      jump(tag_2)\n    tag_1:\n      jumpi(tag_2, calldatasize)\n        /* \"contracts/101_SelfDestruct.sol\":570:596  Log(msg.sender, msg.value) */\n      0xf950957d2407bed19dc99b718b46b4ce6090c05589006dfb86fd22c34865b23e\n        /* \"contracts/101_SelfDestruct.sol\":574:584  msg.sender */\n      caller\n        /* \"contracts/101_SelfDestruct.sol\":586:595  msg.value */\n      callvalue\n        /* \"contracts/101_SelfDestruct.sol\":570:596  Log(msg.sender, msg.value) */\n      mload(0x40)\n      tag_6\n      swap3\n      swap2\n      swap1\n      tag_7\n      jump\t// in\n    tag_6:\n      mload(0x40)\n      dup1\n      swap2\n      sub\n      swap1\n      log1\n        /* \"contracts/101_SelfDestruct.sol\":157:606  contract SelfDestruct {... */\n      stop\n    tag_2:\n      0x00\n      dup1\n      revert\n        /* \"contracts/101_SelfDestruct.sol\":230:523  function destruct(address payable _destAddr) external {... */\n    tag_3:\n      callvalue\n      dup1\n      iszero\n      tag_8\n      jumpi\n      0x00\n      dup1\n      revert\n    tag_8:\n      pop\n      tag_9\n      0x04\n      dup1\n      calldatasize\n      sub\n      dup2\n      add\n      swap1\n      tag_10\n      swap2\n      swap1\n      tag_11\n      jump\t// in\n    tag_10:\n      tag_12\n      jump\t// in\n    tag_9:\n      stop\n    tag_12:\n        /* \"contracts/101_SelfDestruct.sol\":323:324  0 */\n      0x00\n        /* \"contracts/101_SelfDestruct.sol\":302:325  _destAddr != address(0) */\n      0xffffffffffffffffffffffffffffffffffffffff\n      and\n        /* \"contracts/101_SelfDestruct.sol\":302:311  _destAddr */\n      dup2\n        /* \"contracts/101_SelfDestruct.sol\":302:325  _destAddr != address(0) */\n      0xffffffffffffffffffffffffffffffffffffffff\n      and\n      eq\n      iszero\n        /* \"contracts/101_SelfDestruct.sol\":294:350  require(_destAddr != address(0), \"dest address is null\") */\n      tag_14\n      jumpi\n      mload(0x40)\n      0x08c379a000000000000000000000000000000000000000000000000000000000\n      dup2\n      mstore\n      0x04\n      add\n      tag_15\n      swap1\n      tag_16\n      jump\t// in\n    tag_15:\n      mload(0x40)\n      dup1\n      swap2\n      sub\n      swap1\n      revert\n    tag_14:\n        /* \"contracts/101_SelfDestruct.sol\":506:515  _destAddr */\n      dup1\n        /* \"contracts/101_SelfDestruct.sol\":493:516  selfdestruct(_destAddr) */\n      0xffffffffffffffffffffffffffffffffffffffff\n      and\n      selfdestruct\n        /* \"#utility.yul\":7:162   */\n    tag_18:\n        /* \"#utility.yul\":61:66   */\n      0x00\n        /* \"#utility.yul\":99:105   */\n      dup2\n        /* \"#utility.yul\":86:106   */\n      calldataload\n        /* \"#utility.yul\":77:106   */\n      swap1\n      pop\n        /* \"#utility.yul\":115:156   */\n      tag_20\n        /* \"#utility.yul\":150:155   */\n      dup2\n        /* \"#utility.yul\":115:156   */\n      tag_21\n      jump\t// in\n    tag_20:\n        /* \"#utility.yul\":7:162   */\n      swap3\n      swap2\n      pop\n      pop\n      jump\t// out\n        /* \"#utility.yul\":168:513   */\n    tag_11:\n        /* \"#utility.yul\":235:241   */\n      0x00\n        /* \"#utility.yul\":284:286   */\n      0x20\n        /* \"#utility.yul\":272:281   */\n      dup3\n        /* \"#utility.yul\":263:270   */\n      dup5\n        /* \"#utility.yul\":259:282   */\n      sub\n        /* \"#utility.yul\":255:287   */\n      slt\n        /* \"#utility.yul\":252:371   */\n      iszero\n      tag_23\n      jumpi\n        /* \"#utility.yul\":290:369   */\n      tag_24\n      tag_25\n      jump\t// in\n    tag_24:\n        /* \"#utility.yul\":252:371   */\n    tag_23:\n        /* \"#utility.yul\":410:411   */\n      0x00\n        /* \"#utility.yul\":435:496   */\n      tag_26\n        /* \"#utility.yul\":488:495   */\n      dup5\n        /* \"#utility.yul\":479:485   */\n      dup3\n        /* \"#utility.yul\":468:477   */\n      dup6\n        /* \"#utility.yul\":464:486   */\n      add\n        /* \"#utility.yul\":435:496   */\n      tag_18\n      jump\t// in\n    tag_26:\n        /* \"#utility.yul\":425:496   */\n      swap2\n      pop\n        /* \"#utility.yul\":381:506   */\n      pop\n        /* \"#utility.yul\":168:513   */\n      swap3\n      swap2\n      pop\n      pop\n      jump\t// out\n        /* \"#utility.yul\":519:637   */\n    tag_27:\n        /* \"#utility.yul\":606:630   */\n      tag_29\n        /* \"#utility.yul\":624:629   */\n      dup2\n        /* \"#utility.yul\":606:630   */\n      tag_30\n      jump\t// in\n    tag_29:\n        /* \"#utility.yul\":601:604   */\n      dup3\n        /* \"#utility.yul\":594:631   */\n      mstore\n        /* \"#utility.yul\":519:637   */\n      pop\n      pop\n      jump\t// out\n        /* \"#utility.yul\":643:1009   */\n    tag_31:\n        /* \"#utility.yul\":785:788   */\n      0x00\n        /* \"#utility.yul\":806:873   */\n      tag_33\n        /* \"#utility.yul\":870:872   */\n      0x14\n        /* \"#utility.yul\":865:868   */\n      dup4\n        /* \"#utility.yul\":806:873   */\n      tag_34\n      jump\t// in\n    tag_33:\n        /* \"#utility.yul\":799:873   */\n      swap2\n      pop\n        /* \"#utility.yul\":882:975   */\n      tag_35\n        /* \"#utility.yul\":971:974   */\n      dup3\n        /* \"#utility.yul\":882:975   */\n      tag_36\n      jump\t// in\n    tag_35:\n        /* \"#utility.yul\":1000:1002   */\n      0x20\n        /* \"#utility.yul\":995:998   */\n      dup3\n        /* \"#utility.yul\":991:1003   */\n      add\n        /* \"#utility.yul\":984:1003   */\n      swap1\n      pop\n        /* \"#utility.yul\":643:1009   */\n      swap2\n      swap1\n      pop\n      jump\t// out\n        /* \"#utility.yul\":1015:1133   */\n    tag_37:\n        /* \"#utility.yul\":1102:1126   */\n      tag_39\n        /* \"#utility.yul\":1120:1125   */\n      dup2\n        /* \"#utility.yul\":1102:1126   */\n      tag_40\n      jump\t// in\n    tag_39:\n        /* \"#utility.yul\":1097:1100   */\n      dup3\n        /* \"#utility.yul\":1090:1127   */\n      mstore\n        /* \"#utility.yul\":1015:1133   */\n      pop\n      pop\n      jump\t// out\n        /* \"#utility.yul\":1139:1471   */\n    tag_7:\n        /* \"#utility.yul\":1260:1264   */\n      0x00\n        /* \"#utility.yul\":1298:1300   */\n      0x40\n        /* \"#utility.yul\":1287:1296   */\n      dup3\n        /* \"#utility.yul\":1283:1301   */\n      add\n        /* \"#utility.yul\":1275:1301   */\n      swap1\n      pop\n        /* \"#utility.yul\":1311:1382   */\n      tag_42\n        /* \"#utility.yul\":1379:1380   */\n      0x00\n        /* \"#utility.yul\":1368:1377   */\n      dup4\n        /* \"#utility.yul\":1364:1381   */\n      add\n        /* \"#utility.yul\":1355:1361   */\n      dup6\n        /* \"#utility.yul\":1311:1382   */\n      tag_27\n      jump\t// in\n    tag_42:\n        /* \"#utility.yul\":1392:1464   */\n      tag_43\n        /* \"#utility.yul\":1460:1462   */\n      0x20\n        /* \"#utility.yul\":1449:1458   */\n      dup4\n        /* \"#utility.yul\":1445:1463   */\n      add\n        /* \"#utility.yul\":1436:1442   */\n      dup5\n        /* \"#utility.yul\":1392:1464   */\n      tag_37\n      jump\t// in\n    tag_43:\n        /* \"#utility.yul\":1139:1471   */\n      swap4\n      swap3\n      pop\n      pop\n      pop\n      jump\t// out\n        /* \"#utility.yul\":1477:1896   */\n    tag_16:\n        /* \"#utility.yul\":1643:1647   */\n      0x00\n        /* \"#utility.yul\":1681:1683   */\n      0x20\n        /* \"#utility.yul\":1670:1679   */\n      dup3\n        /* \"#utility.yul\":1666:1684   */\n      add\n        /* \"#utility.yul\":1658:1684   */\n      swap1\n      pop\n        /* \"#utility.yul\":1730:1739   */\n      dup2\n        /* \"#utility.yul\":1724:1728   */\n      dup2\n        /* \"#utility.yul\":1720:1740   */\n      sub\n        /* \"#utility.yul\":1716:1717   */\n      0x00\n        /* \"#utility.yul\":1705:1714   */\n      dup4\n        /* \"#utility.yul\":1701:1718   */\n      add\n        /* \"#utility.yul\":1694:1741   */\n      mstore\n        /* \"#utility.yul\":1758:1889   */\n      tag_45\n        /* \"#utility.yul\":1884:1888   */\n      dup2\n        /* \"#utility.yul\":1758:1889   */\n      tag_31\n      jump\t// in\n    tag_45:\n        /* \"#utility.yul\":1750:1889   */\n      swap1\n      pop\n        /* \"#utility.yul\":1477:1896   */\n      swap2\n      swap1\n      pop\n      jump\t// out\n        /* \"#utility.yul\":1983:2152   */\n    tag_34:\n        /* \"#utility.yul\":2067:2078   */\n      0x00\n        /* \"#utility.yul\":2101:2107   */\n      dup3\n        /* \"#utility.yul\":2096:2099   */\n      dup3\n        /* \"#utility.yul\":2089:2108   */\n      mstore\n        /* \"#utility.yul\":2141:2145   */\n      0x20\n        /* \"#utility.yul\":2136:2139   */\n      dup3\n        /* \"#utility.yul\":2132:2146   */\n      add\n        /* \"#utility.yul\":2117:2146   */\n      swap1\n      pop\n        /* \"#utility.yul\":1983:2152   */\n      swap3\n      swap2\n      pop\n      pop\n      jump\t// out\n        /* \"#utility.yul\":2158:2254   */\n    tag_30:\n        /* \"#utility.yul\":2195:2202   */\n      0x00\n        /* \"#utility.yul\":2224:2248   */\n      tag_50\n        /* \"#utility.yul\":2242:2247   */\n      dup3\n        /* \"#utility.yul\":2224:2248   */\n      tag_51\n      jump\t// in\n    tag_50:\n        /* \"#utility.yul\":2213:2248   */\n      swap1\n      pop\n        /* \"#utility.yul\":2158:2254   */\n      swap2\n      swap1\n      pop\n      jump\t// out\n        /* \"#utility.yul\":2260:2364   */\n    tag_52:\n        /* \"#utility.yul\":2305:2312   */\n      0x00\n        /* \"#utility.yul\":2334:2358   */\n      tag_54\n        /* \"#utility.yul\":2352:2357   */\n      dup3\n        /* \"#utility.yul\":2334:2358   */\n      tag_51\n      jump\t// in\n    tag_54:\n        /* \"#utility.yul\":2323:2358   */\n      swap1\n      pop\n        /* \"#utility.yul\":2260:2364   */\n      swap2\n      swap1\n      pop\n      jump\t// out\n        /* \"#utility.yul\":2370:2496   */\n    tag_51:\n        /* \"#utility.yul\":2407:2414   */\n      0x00\n        /* \"#utility.yul\":2447:2489   */\n      0xffffffffffffffffffffffffffffffffffffffff\n        /* \"#utility.yul\":2440:2445   */\n      dup3\n        /* \"#utility.yul\":2436:2490   */\n      and\n        /* \"#utility.yul\":2425:2490   */\n      swap1\n      pop\n        /* \"#utility.yul\":2370:2496   */\n      swap2\n      swap1\n      pop\n      jump\t// out\n        /* \"#utility.yul\":2502:2579   */\n    tag_40:\n        /* \"#utility.yul\":2539:2546   */\n      0x00\n        /* \"#utility.yul\":2568:2573   */\n      dup2\n        /* \"#utility.yul\":2557:2573   */\n      swap1\n      pop\n        /* \"#utility.yul\":2502:2579   */\n      swap2\n      swap1\n      pop\n      jump\t// out\n        /* \"#utility.yul\":2708:2825   */\n    tag_25:\n        /* \"#utility.yul\":2817:2818   */\n      0x00\n        /* \"#utility.yul\":2814:2815   */\n      dup1\n        /* \"#utility.yul\":2807:2819   */\n      revert\n        /* \"#utility.yul\":2831:3001   */\n    tag_36:\n        /* \"#utility.yul\":2971:2993   */\n      0x646573742061646472657373206973206e756c6c000000000000000000000000\n        /* \"#utility.yul\":2967:2968   */\n      0x00\n        /* \"#utility.yul\":2959:2965   */\n      dup3\n        /* \"#utility.yul\":2955:2969   */\n      add\n        /* \"#utility.yul\":2948:2994   */\n      mstore\n        /* \"#utility.yul\":2831:3001   */\n      pop\n      jump\t// out\n        /* \"#utility.yul\":3007:3145   */\n    tag_21:\n        /* \"#utility.yul\":3088:3120   */\n      tag_62\n        /* \"#utility.yul\":3114:3119   */\n      dup2\n        /* \"#utility.yul\":3088:3120   */\n      tag_52\n      jump\t// in\n    tag_62:\n        /* \"#utility.yul\":3081:3086   */\n      dup2\n        /* \"#utility.yul\":3078:3121   */\n      eq\n        /* \"#utility.yul\":3068:3139   */\n      tag_63\n      jumpi\n        /* \"#utility.yul\":3135:3136   */\n      0x00\n        /* \"#utility.yul\":3132:3133   */\n      dup1\n        /* \"#utility.yul\":3125:3137   */\n      revert\n        /* \"#utility.yul\":3068:3139   */\n    tag_63:\n        /* \"#utility.yul\":3007:3145   */\n      pop\n      jump\t// out\n\n    auxdata: 0xa2646970667358221220e0b5fa2c92c2b7c26850928654e96a6519418e71895190360ffac53c09614da064736f6c63430008070033\n}\n",
				"bytecode": {
					"linkReferences": {},
					"object": "608060405234801561001057600080fd5b506102bf806100206000396000f3fe6080604052600436106100225760003560e01c80631beb26151461006757610062565b36610062577ff950957d2407bed19dc99b718b46b4ce6090c05589006dfb86fd22c34865b23e333460405161005892919061019c565b60405180910390a1005b600080fd5b34801561007357600080fd5b5061008e6004803603810190610089919061012e565b610090565b005b600073ffffffffffffffffffffffffffffffffffffffff168173ffffffffffffffffffffffffffffffffffffffff161415610100576040517f08c379a00000000000000000000000000000000000000000000000000000000081526004016100f7906101c5565b60405180910390fd5b8073ffffffffffffffffffffffffffffffffffffffff16ff5b60008135905061012881610272565b92915050565b60006020828403121561014457610143610244565b5b600061015284828501610119565b91505092915050565b610164816101f6565b82525050565b60006101776014836101e5565b915061018282610249565b602082019050919050565b6101968161023a565b82525050565b60006040820190506101b1600083018561015b565b6101be602083018461018d565b9392505050565b600060208201905081810360008301526101de8161016a565b9050919050565b600082825260208201905092915050565b60006102018261021a565b9050919050565b60006102138261021a565b9050919050565b600073ffffffffffffffffffffffffffffffffffffffff82169050919050565b6000819050919050565b600080fd5b7f646573742061646472657373206973206e756c6c000000000000000000000000600082015250565b61027b81610208565b811461028657600080fd5b5056fea2646970667358221220e0b5fa2c92c2b7c26850928654e96a6519418e71895190360ffac53c09614da064736f6c63430008070033",
					"opcodes": "PUSH1 0x80 PUSH1 0x40 MSTORE CALLVALUE DUP1 ISZERO PUSH2 0x10 JUMPI PUSH1 0x0 DUP1 REVERT JUMPDEST POP PUSH2 0x2BF DUP1 PUSH2 0x20 PUSH1 0x0 CODECOPY PUSH1 0x0 RETURN INVALID PUSH1 0x80 PUSH1 0x40 MSTORE PUSH1 0x4 CALLDATASIZE LT PUSH2 0x22 JUMPI PUSH1 0x0 CALLDATALOAD PUSH1 0xE0 SHR DUP1 PUSH4 0x1BEB2615 EQ PUSH2 0x67 JUMPI PUSH2 0x62 JUMP JUMPDEST CALLDATASIZE PUSH2 0x62 JUMPI PUSH32 0xF950957D2407BED19DC99B718B46B4CE6090C05589006DFB86FD22C34865B23E CALLER CALLVALUE PUSH1 0x40 MLOAD PUSH2 0x58 SWAP3 SWAP2 SWAP1 PUSH2 0x19C JUMP JUMPDEST PUSH1 0x40 MLOAD DUP1 SWAP2 SUB SWAP1 LOG1 STOP JUMPDEST PUSH1 0x0 DUP1 REVERT JUMPDEST CALLVALUE DUP1 ISZERO PUSH2 0x73 JUMPI PUSH1 0x0 DUP1 REVERT JUMPDEST POP PUSH2 0x8E PUSH1 0x4 DUP1 CALLDATASIZE SUB DUP2 ADD SWAP1 PUSH2 0x89 SWAP2 SWAP1 PUSH2 0x12E JUMP JUMPDEST PUSH2 0x90 JUMP JUMPDEST STOP JUMPDEST PUSH1 0x0 PUSH20 0xFFFFFFFFFFFFFFFFFFFFFFFFFFFFFFFFFFFFFFFF AND DUP2 PUSH20 0xFFFFFFFFFFFFFFFFFFFFFFFFFFFFFFFFFFFFFFFF AND EQ ISZERO PUSH2 0x100 JUMPI PUSH1 0x40 MLOAD PUSH32 0x8C379A000000000000000000000000000000000000000000000000000000000 DUP2 MSTORE PUSH1 0x4 ADD PUSH2 0xF7 SWAP1 PUSH2 0x1C5 JUMP JUMPDEST PUSH1 0x40 MLOAD DUP1 SWAP2 SUB SWAP1 REVERT JUMPDEST DUP1 PUSH20 0xFFFFFFFFFFFFFFFFFFFFFFFFFFFFFFFFFFFFFFFF AND SELFDESTRUCT JUMPDEST PUSH1 0x0 DUP2 CALLDATALOAD SWAP1 POP PUSH2 0x128 DUP2 PUSH2 0x272 JUMP JUMPDEST SWAP3 SWAP2 POP POP JUMP JUMPDEST PUSH1 0x0 PUSH1 0x20 DUP3 DUP5 SUB SLT ISZERO PUSH2 0x144 JUMPI PUSH2 0x143 PUSH2 0x244 JUMP JUMPDEST JUMPDEST PUSH1 0x0 PUSH2 0x152 DUP5 DUP3 DUP6 ADD PUSH2 0x119 JUMP JUMPDEST SWAP2 POP POP SWAP3 SWAP2 POP POP JUMP JUMPDEST PUSH2 0x164 DUP2 PUSH2 0x1F6 JUMP JUMPDEST DUP3 MSTORE POP POP JUMP JUMPDEST PUSH1 0x0 PUSH2 0x177 PUSH1 0x14 DUP4 PUSH2 0x1E5 JUMP JUMPDEST SWAP2 POP PUSH2 0x182 DUP3 PUSH2 0x249 JUMP JUMPDEST PUSH1 0x20 DUP3 ADD SWAP1 POP SWAP2 SWAP1 POP JUMP JUMPDEST PUSH2 0x196 DUP2 PUSH2 0x23A JUMP JUMPDEST DUP3 MSTORE POP POP JUMP JUMPDEST PUSH1 0x0 PUSH1 0x40 DUP3 ADD SWAP1 POP PUSH2 0x1B1 PUSH1 0x0 DUP4 ADD DUP6 PUSH2 0x15B JUMP JUMPDEST PUSH2 0x1BE PUSH1 0x20 DUP4 ADD DUP5 PUSH2 0x18D JUMP JUMPDEST SWAP4 SWAP3 POP POP POP JUMP JUMPDEST PUSH1 0x0 PUSH1 0x20 DUP3 ADD SWAP1 POP DUP2 DUP2 SUB PUSH1 0x0 DUP4 ADD MSTORE PUSH2 0x1DE DUP2 PUSH2 0x16A JUMP JUMPDEST SWAP1 POP SWAP2 SWAP1 POP JUMP JUMPDEST PUSH1 0x0 DUP3 DUP3 MSTORE PUSH1 0x20 DUP3 ADD SWAP1 POP SWAP3 SWAP2 POP POP JUMP JUMPDEST PUSH1 0x0 PUSH2 0x201 DUP3 PUSH2 0x21A JUMP JUMPDEST SWAP1 POP SWAP2 SWAP1 POP JUMP JUMPDEST PUSH1 0x0 PUSH2 0x213 DUP3 PUSH2 0x21A JUMP JUMPDEST SWAP1 POP SWAP2 SWAP1 POP JUMP JUMPDEST PUSH1 0x0 PUSH20 0xFFFFFFFFFFFFFFFFFFFFFFFFFFFFFFFFFFFFFFFF DUP3 AND SWAP1 POP SWAP2 SWAP1 POP JUMP JUMPDEST PUSH1 0x0 DUP2 SWAP1 POP SWAP2 SWAP1 POP JUMP JUMPDEST PUSH1 0x0 DUP1 REVERT JUMPDEST PUSH32 0x646573742061646472657373206973206E756C6C000000000000000000000000 PUSH1 0x0 DUP3 ADD MSTORE POP JUMP JUMPDEST PUSH2 0x27B DUP2 PUSH2 0x208 JUMP JUMPDEST DUP2 EQ PUSH2 0x286 JUMPI PUSH1 0x0 DUP1 REVERT JUMPDEST POP JUMP INVALID LOG2 PUSH5 0x6970667358 0x22 SLT KECCAK256 0xE0 0xB5 STATICCALL 0x2C SWAP3 0xC2 0xB7 0xC2 PUSH9 0x50928654E96A651941 DUP15 PUSH18 0x895190360FFAC53C09614DA064736F6C6343 STOP ADDMOD SMOD STOP CALLER "
				},
				"gasEstimates": {
					"creation": {
						"codeDepositCost": "140600",
						"executionCost": "183",
						"totalCost": "140783"
					},
					"external": {
						"destruct(address)": "28069"
					}
				},
				"methodIdentifiers": {
					"destruct(address)": "1beb2615"
				}
			},
			"storageLayout": {
				"storage": [],
				"types": null
			},
			"userdoc": {
				"kind": "user",
				"methods": {},
				"version": 1
			}
		}
	}
}